:020000040800F2
:100000000050002089290008A9280008AB28000812
:10001000AD280008AF280008B12800080000000043
:10002000000000000000000000000000B3280008ED
:10003000B528000800000000B7280008B92800080B
:10004000D1290008D1290008D1290008D1290008A8
:10005000D1290008D1290008D1290008D129000898
:10006000D1290008D1290008D1290008D129000888
:10007000D1290008D1290008D1290008D129000878
:10008000D1290008D1290008D1290008D129000868
:10009000D1290008D1290008D1290008D129000858
:1000A000D1290008D1290008D1290008D129000848
:1000B000D1290008D1290008BD280008D12900084D
:1000C000D1290008D1290008D1290008D129000828
:1000D000D1290008C9280008D1290008D129000821
:1000E000D1290008D1290008D1290008000000000A
:1000F0000000000000000000000000000000000000
:0C01000000000000000000005FF808F1A3
:1001100010B5054C237833B9044B13B10448AFF341
:1001200000800123237010BDE801002000000000C2
:10013000DC8A000808B5034B1BB103490348AFF341
:10014000008008BD00000000EC010020DC8A0008EF
:10015000034613F8012B002AFBD1181A0138704707
:1001600081F0004102E000BF83F0004330B54FEA68
:1001700041044FEA430594EA050F08BF90EA020FD5
:100180001FBF54EA000C55EA020C7FEA645C7FEA68
:10019000655C00F0E2804FEA5454D4EB5555B8BF8B
:1001A0006D420CDD2C4480EA020281EA030382EAFC
:1001B000000083EA010180EA020281EA0303362D8E
:1001C00088BF30BD11F0004F4FEA01314FF4801C61
:1001D0004CEA113102D0404261EB410113F0004F73
:1001E0004FEA03334CEA133302D0524263EB43032A
:1001F00094EA050F00F0A780A4F10104D5F1200EC8
:100200000DDB02FA0EFC22FA05F2801841F1000122
:1002100003FA0EF2801843FA05F359410EE0A5F1F6
:1002200020050EF1200E012A03FA0EFC28BF4CF027
:10023000020C43FA05F3C01851EBE37101F00045DD
:1002400007D54FF0000EDCF1000C7EEB00006EEBEA
:100250000101B1F5801F1BD3B1F5001F0CD3490874
:100260005FEA30004FEA3C0C04F101044FEA4452CB
:1002700012F5800F80F09A80BCF1004F08BF5FEA52
:10028000500C50F1000041EB045141EA050130BD32
:100290005FEA4C0C404141EB0101013C28BFB1F544
:1002A000801FE9D291F0000F04BF01460020B1FA8F
:1002B00081F308BF2033A3F10B03B3F120020CDA62
:1002C0000C3208DD02F1140CC2F10C0201FA0CF040
:1002D00021FA02F10CE002F11402D8BFC2F1200CA5
:1002E00001FA02F120FA0CFCDCBF41EA0C0190405B
:1002F000E41AA2BF01EB0451294330BD6FEA0404A4
:100300001F3C1CDA0C340EDC04F11404C4F120028E
:1003100020FA04F001FA02F340EA030021FA04F3A0
:1003200045EA030130BDC4F10C04C4F1200220FAF7
:1003300002F001FA04F340EA0300294630BD21FA35
:1003400004F0294630BD94F0000F83F4801306BFFB
:1003500081F480110134013D4EE77FEA645C18BFEF
:100360007FEA655C29D094EA050F08BF90EA020F86
:1003700005D054EA000C04BF1946104630BD91EA7E
:10038000030F1EBF0021002030BD5FEA545C05D181
:100390004000494128BF41F0004130BD14F58004C0
:1003A0003CBF01F5801130BD01F0004545F0FE4134
:1003B00041F470014FF0000030BD7FEA645C1ABF69
:1003C000194610467FEA655C1CBF0B46024650EAA0
:1003D000013406BF52EA033591EA030F41F40021CC
:1003E00030BD00BF90F0000F04BF0021704730B552
:1003F0004FF4806404F132044FF000054FF0000127
:1004000050E700BF90F0000F04BF0021704730B5E7
:100410004FF4806404F1320410F0004548BF4042BC
:100420004FF000013EE700BF42004FEAE2014FEA11
:1004300031014FEA02701FBF12F07F4393F07F4FEC
:1004400081F06051704732F07F4208BF704793F0EF
:100450007F4F04BF41F40021704730B54FF4607402
:1004600001F0004521F000411CE700BF50EA010205
:1004700008BF704730B54FF000050AE050EA0102AE
:1004800008BF704730B511F0004502D5404261EB1E
:1004900041014FF4806404F132045FEA915C3FF45F
:1004A000D8AE4FF003025FEADC0C18BF03325FEAFC
:1004B000DC0C18BF033202EBDC02C2F1200300FAAD
:1004C00003FC20FA02F001FA03FE40EA0E0021FAD2
:1004D00002F11444BDE600BF70B54FF0FF0C4CF4C0
:1004E000E06C1CEA11541DBF1CEA135594EA0C0F72
:1004F00095EA0C0F00F0DEF82C4481EA030621EAAD
:100500004C5123EA4C5350EA013518BF52EA0335E7
:1005100041F4801143F4801338D0A0FB02CE4FF099
:100520000005E1FB02E506F00042E0FB03E54FF0C9
:100530000006E1FB03569CF0000F18BF4EF0010EC1
:10054000A4F1FF04B6F5007F64F5407404D25FEABD
:100550004E0E6D4146EB060642EAC62141EA555170
:100560004FEAC52040EA5E504FEACE2EB4F1FD0CB2
:1005700088BFBCF5E06F1ED8BEF1004F08BF5FEA30
:10058000500E50F1000041EB045170BD06F00046E2
:1005900046EA010140EA020081EA0301B4EB5C048F
:1005A000C2BFD4EB0C0541EA045170BD41F4801187
:1005B0004FF0000E013C00F3AB8014F1360FDEBFAC
:1005C000002001F0004170BDC4F10004203C35DA88
:1005D0000C341BDC04F11404C4F1200500FA05F30B
:1005E00020FA04F001FA05F240EA020001F00042AC
:1005F00021F0004110EBD37021FA04F642EB060122
:100600005EEA430E08BF20EAD37070BDC4F10C044B
:10061000C4F1200500FA04F320FA05F001FA04F20F
:1006200040EA020001F0004110EBD37041F10001FB
:100630005EEA430E08BF20EAD37070BDC4F1200506
:1006400000FA05F24EEA020E20FA04F301FA05F26E
:1006500043EA020321FA04F001F0004121FA04F216
:1006600020EA020000EBD3705EEA430E08BF20EAE6
:10067000D37070BD94F0000F0FD101F00046400020
:1006800041EB010111F4801F08BF013CF7D041EAA2
:10069000060195F0000F18BF704703F000465200A6
:1006A00043EB030313F4801F08BF013DF7D043EA77
:1006B0000603704794EA0C0F0CEA135518BF95EA2D
:1006C0000C0F0CD050EA410618BF52EA4306D1D1B4
:1006D00081EA030101F000414FF0000070BD50EAD3
:1006E000410606BF1046194652EA430619D094EA5D
:1006F0000C0F02D150EA013613D195EA0C0F05D147
:1007000052EA03361CBF104619460AD181EA03019A
:1007100001F0004141F0FE4141F470014FF0000052
:1007200070BD41F0FE4141F4780170BD70B54FF0ED
:10073000FF0C4CF4E06C1CEA11541DBF1CEA13556D
:1007400094EA0C0F95EA0C0F00F0A7F8A4EB05044F
:1007500081EA030E52EA03354FEA013100F0888046
:100760004FEA03334FF0805545EA131343EA12630F
:100770004FEA022245EA111545EA10654FEA0026C4
:100780000EF000419D4208BF964244F1FD0404F57D
:10079000407402D25B084FEA3202B61A65EB0305D9
:1007A0005B084FEA32024FF480104FF4002CB6EB96
:1007B000020E75EB030E22BFB61A754640EA0C0016
:1007C0005B084FEA3202B6EB020E75EB030E22BF56
:1007D000B61A754640EA5C005B084FEA3202B6EB97
:1007E000020E75EB030E22BFB61A754640EA9C0056
:1007F0005B084FEA3202B6EB020E75EB030E22BF26
:10080000B61A754640EADC0055EA060E18D04FEAE3
:10081000051545EA16754FEA06164FEAC30343EA83
:1008200052734FEAC2025FEA1C1CC0D111F4801F50
:100830000BD141EA00014FF000004FF0004CB6E749
:1008400011F4801F04BF01430020B4F1FD0C88BFE8
:10085000BCF5E06F3FF6AFAEB5EB030C04BFB6EBF3
:10086000020C5FEA500C50F1000041EB045170BDE6
:100870000EF0004E4EEA113114EB5C04C2BFD4EB13
:100880000C0541EA045170BD41F480114FF0000E97
:10089000013C90E645EA060E8DE60CEA135594EA13
:1008A0000C0F08BF95EA0C0F3FF43BAF94EA0C0F16
:1008B0000AD150EA01347FF434AF95EA0C0F7FF48B
:1008C00025AF104619462CE795EA0C0F06D152EADF
:1008D00003353FF4FDAE1046194622E750EA4106C3
:1008E00018BF52EA43067FF4C5AE50EA41047FF4D4
:1008F0000DAF52EA43057FF4EBAE12E74FF0FF3C39
:1009000006E000BF4FF0010C02E000BF4FF0010C09
:100910004DF804CD4FEA410C7FEA6C5C4FEA430C82
:1009200018BF7FEA6C5C1BD001B050EA410C0CBFD1
:1009300052EA430C91EA030F02BF90EA020F002033
:10094000704710F1000F91EA030F58BF994208BF9A
:1009500090422CBFD8176FEAE37040F00100704757
:100960004FEA410C7FEA6C5C02D150EA013C07D1AE
:100970004FEA430C7FEA6C5CD6D152EA033CD3D0F9
:100980005DF8040B704700BF8446104662468C46F3
:100990001946634600E000BF01B5FFF7B7FF002826
:1009A00048BF10F1000F01BD4DF808EDFFF7F4FF4F
:1009B0000CBF012000205DF808FB00BF4DF808EDDA
:1009C000FFF7EAFF34BF012000205DF808FB00BFFD
:1009D0004DF808EDFFF7E0FF94BF012000205DF81F
:1009E00008FB00BF4DF808EDFFF7CEFF94BF0120D4
:1009F00000205DF808FB00BF4DF808EDFFF7C4FFCD
:100A000034BF012000205DF808FB00BF4FEA410C15
:100A10007FEA6C5C02D150EA013C0AD14FEA430CF8
:100A20007FEA6C5C02D152EA033C02D14FF0000035
:100A300070474FF0010070474FEA410212F5001273
:100A400015D211D56FF47873B3EB625212D94FEA15
:100A5000C12343F0004343EA505311F0004F23FAFF
:100A600002F018BF404270474FF00000704750EA54
:100A7000013005D111F0004008BF6FF00040704711
:100A80004FF00000704700BF4A0011D212F500126B
:100A900011D20DD56FF47873B3EB62520ED44FEAD6
:100AA000C12343F0004343EA505323FA02F0704756
:100AB0004FF00000704750EA013002D14FF0FF3094
:100AC00070474FF0000070474FEA4102B2F1E04337
:100AD00024BFB3F5001CDCF1FE5C0DD901F0004C25
:100AE0004FEAC0024CEA5070B2F1004F40EB830075
:100AF00008BF20F00100704711F0804F21D113F1A1
:100B00003872BCBF01F00040704741F480114FEAD9
:100B10005252C2F11802C2F1200C10FA0CF320FA62
:100B200002F018BF40F001004FEAC1234FEAD3237F
:100B300003FA0CFC40EA0C0023FA02F34FEA4303E9
:100B4000CCE77FEA625307D150EA01331EBF4FF072
:100B5000FE4040F44000704701F0004040F0FE408D
:100B600040F40000704700BF80F0004002E000BF8A
:100B700081F0004142001FBF5FEA410392EA030F88
:100B80007FEA226C7FEA236C6AD04FEA1262D2EBD2
:100B90001363C1BFD218414048404140B8BF5B42D7
:100BA000192B88BF704710F0004F40F4000020F070
:100BB0007F4018BF404211F0004F41F4000121F086
:100BC0007F4118BF494292EA030F3FD0A2F10102D0
:100BD00041FA03FC10EB0C00C3F1200301FA03F10E
:100BE00000F0004302D5494260EB4000B0F5000F31
:100BF00013D3B0F1807F06D340084FEA310102F1F0
:100C00000102FE2A51D2B1F1004F40EBC25008BFA1
:100C100020F0010040EA03007047490040EB00006B
:100C2000013A28BFB0F5000FEDD2B0FA80FCACF16C
:100C3000080CB2EB0C0200FA0CF0AABF00EBC25099
:100C400052421843BCBFD0401843704792F0000F87
:100C500081F4000106BF80F400000132013BB5E7DA
:100C60004FEA41037FEA226C18BF7FEA236C21D050
:100C700092EA030F04D092F0000F08BF08467047B5
:100C800090EA010F1CBF0020704712F07F4F04D183
:100C9000400028BF40F00040704712F100723CBF96
:100CA00000F50000704700F0004343F0FE4040F4C0
:100CB000000070477FEA226216BF08467FEA23637E
:100CC0000146420206BF5FEA412390EA010F40F469
:100CD000800070474FF0000304E000BF10F00043B5
:100CE00048BF40425FEA000C08BF704743F096439C
:100CF00001464FF000001CE050EA010208BF7047B7
:100D00004FF000030AE000BF50EA010208BF70473D
:100D100011F0004302D5404261EB41015FEA010C52
:100D200002BF84460146002043F0B64308BFA3F14A
:100D30008053A3F50003BCFA8CF2083AA3EBC2532C
:100D400010DB01FA02FC634400FA02FCC2F120024B
:100D5000BCF1004F20FA02F243EB020008BF20F082
:100D60000100704702F1200201FA02FCC2F12002E8
:100D700050EA4C0021FA02F243EB020008BF20EADD
:100D8000DC7070474FF0FF0C1CEAD0521EBF1CEA0B
:100D9000D15392EA0C0F93EA0C0F6FD01A4480EAF9
:100DA000010C400218BF5FEA41211ED04FF00063E2
:100DB00043EA501043EA5111A0FB01310CF000400E
:100DC000B1F5000F3EBF490041EAD3715B0040EA34
:100DD000010062F17F02FD2A1DD8B3F1004F40EB04
:100DE000C25008BF20F00100704790F0000F0CF0D7
:100DF000004C08BF49024CEA502040EA51207F3A9B
:100E0000C2BFD2F1FF0340EAC250704740F4000075
:100E10004FF00003013A5DDC12F1190FDCBF00F066
:100E200000407047C2F10002410021FA02F1C2F114
:100E3000200200FA02FC5FEA310040F1000053EAB0
:100E40004C0308BF20EADC70704792F0000F00F0FE
:100E5000004C02BF400010F4000F013AF9D040EA04
:100E60000C0093F0000F01F0004C02BF490011F498
:100E7000000F013BF9D041EA0C018FE70CEAD15396
:100E800092EA0C0F18BF93EA0C0F0AD030F0004C16
:100E900018BF31F0004CD8D180EA010000F00040CA
:100EA000704790F0000F17BF90F0004F084691F088
:100EB000000F91F0004F14D092EA0C0F01D14202C2
:100EC0000FD193EA0C0F03D14B0218BF084608D18B
:100ED00080EA010000F0004040F0FE4040F40000D5
:100EE000704740F0FE4040F4400070474FF0FF0C68
:100EF0001CEAD0521EBF1CEAD15392EA0C0F93EAAF
:100F00000C0F69D0A2EB030280EA010C49024FEA00
:100F1000402037D04FF0805343EA111143EA1013B9
:100F20000CF000408B4238BF5B0042F17D024FF471
:100F3000000C8B4224BF5B1A40EA0C00B3EB510F4C
:100F400024BFA3EB510340EA5C00B3EB910F24BF35
:100F5000A3EB910340EA9C00B3EBD10F24BFA3EBBA
:100F6000D10340EADC001B0118BF5FEA1C1CE0D182
:100F7000FD2A3FF650AF8B4240EBC25008BF20F035
:100F8000010070470CF0004C4CEA50207F32C2BF89
:100F9000D2F1FF0340EAC250704740F400004FF026
:100FA0000003013A37E792F0000F00F0004C02BF57
:100FB000400010F4000F013AF9D040EA0C0093F021
:100FC000000F01F0004C02BF490011F4000F013B7B
:100FD000F9D041EA0C0195E70CEAD15392EA0C0FE3
:100FE00008D142027FF47DAF93EA0C0F7FF470AF1B
:100FF000084676E793EA0C0F04D14B023FF44CAF5E
:1010000008466EE730F0004C18BF31F0004CCAD1F2
:1010100030F000427FF45CAF31F000437FF43CAF2E
:101020005FE700BF4FF0FF3C06E000BF4FF0010C50
:1010300002E000BF4FF0010C4DF804CD4FEA400232
:101040004FEA41037FEA226C18BF7FEA236C11D07C
:1010500001B052EA530C18BF90EA010F58BFB2EB2F
:10106000030088BFC81738BF6FEAE17018BF40F0AF
:10107000010070477FEA226C02D15FEA402C05D163
:101080007FEA236CE4D15FEA412CE1D05DF8040BE8
:10109000704700BF844608466146FFE70FB5FFF77B
:1010A000C9FF002848BF10F1000F0FBD4DF808ED33
:1010B000FFF7F4FF0CBF012000205DF808FB00BF24
:1010C0004DF808EDFFF7EAFF34BF012000205DF87E
:1010D00008FB00BF4DF808EDFFF7E0FF94BF0120CB
:1010E00000205DF808FB00BF4DF808EDFFF7D2FFC8
:1010F00094BF012000205DF808FB00BF4DF808ED0B
:10110000FFF7C8FF34BF012000205DF808FB00BFD7
:1011100042000ED2B2F1FE4F0BD34FF09E03B3EB61
:10112000126209D44FEA002343F0004323FA02F08D
:1011300070474FF00000704712F1610F01D1420279
:1011400002D14FF0FF3070474FF00000704700BFF2
:1011500038B505460C460022002328462146FFF7F5
:101160002DFC28B928462146BDE8384000F00AB8D1
:10117000284604F1004100F005F8404261EB4101CE
:1011800038BD00BFD0B500220B4B06460F46FFF717
:10119000A3F9FFF779FC0446FFF724F90022074B77
:1011A000FFF79AF902460B4630463946FEF7DCFF58
:1011B000FFF76AFC2146D0BD0000F03D0000F04181
:1011C00002464FF000630649184603F580639A42D1
:1011D00001D2824203D28B42F6D14FF0FF307047EA
:1011E00000000208F7B5054616460F4601F03EFD21
:1011F0002846FFF7E5FF044605EB8600FFF7E0FF12
:10120000034600221B1B10489B0A013301A984607E
:101210000260C36001F0D8FD044660B101F042FDF8
:1012200003B0F0BD0023022057F8242001F06AFD2E
:101230000028F3D10134B44205EB8401F2DB01F064
:1012400027FD0020ECE700BF04020020401A0B58E5
:101250000B600B68013302D100230B60704704312F
:10126000F5E70000222202490248FFF7BBBF00BF9A
:101270000412002000FC0108052208B503490448B7
:1012800003F009FA0122034B1A7008BD0300002085
:101290008C1300209C12002010B58EB002460B4625
:1012A00001A8094903F0CEFE084C82B201A94FF40F
:1012B0007A73204603F022F864230322204604496F
:1012C00003F01CF80EB010BDF88A00088C13002043
:1012D0000000002010B5044690B00846FFF7A4F8BF
:1012E0002246CDE900010A4903A803F0ABFE094CF0
:1012F00082B203A94FF47A73204602F0FFFF642301
:1013000003222046044902F0F9FF10B010BD00BFCF
:10131000048B00088C1300200000002010B5044648
:1013200090B00846FFF780F82246CDE900010A494F
:1013300003A803F087FE094C82B203A94FF47A7325
:10134000204602F0DBFF642303222046044902F01A
:10135000D5FF10B010BD00BF128B00088C13002009
:101360000000002010B58EB002460B4601A80949C6
:1013700003F068FE084C82B201A94FF47A7320464C
:1013800002F0BCFF642303222046044902F0B6FFAA
:101390000EB010BD208B00088C1300200000002030
:1013A00070B50446FEF7D4FE074D214682B24FF4D5
:1013B0007A73284602F0A2FF2846BDE870406423F5
:1013C0000322024902F09ABF8C1300200000002083
:1013D00010B58EB002460B4601A8094903F032FE53
:1013E000084C82B201A94FF47A73204602F086FFBE
:1013F000642303222046044902F080FF0EB010BD92
:101400003F8B00088C1300200000002010B58EB028
:1014100002460B4601A8094903F014FE084C82B2AB
:1014200001A94FF47A73204602F068FF6423032277
:101430002046044902F062FF0EB010BD538B000835
:101440008C130020000000202DE9F8430024142212
:1014500000211D481D4F03F08DF91D4E1D491E48EA
:10146000FFF71AFF3C70052230461C4903F012FEBC
:101470000546DFF86C80DFF86C9035B9124803F050
:101480004BF9FFF721FBBDE8F883052241463046C2
:1014900003F000FE98B105224946304603F0FAFDFC
:1014A00078B13B78012BE8D107493279E3B2CA54CD
:1014B000002309483B700134FFF7EEFED3E70A48EA
:1014C000E1E70A48DFE700BFD01300209C120020AC
:1014D00003000020E08F0008668B0008758B000871
:1014E000698B00086F8B0008003C1C4600E00A4630
:1014F000114A13B5114B124C1068127918601A7109
:10150000E1681048FFF7E6FE61690F48FFF72AFF20
:1015100021690E48FFF726FFA1690D48FFF7DAFEA3
:10152000216A0C48FFF71EFFE1690B4802B0BDE8D5
:101530001040FFF717BF00BF7B8B0008030000209F
:1015400004120020668B00082D8B0008308B0008E9
:10155000338B0008368B0008398B0008F7B5274A13
:10156000274B1068127918601A71264B264C1B788D
:10157000264E012B1BD1237025493068FFF702FC52
:10158000FFF7C6FD234FC0F1F5053868FFF7A2FB52
:101590002149FFF7F7FBFFF7BBFD29462330FFF793
:1015A00035FF3B681D4AD35C23B9237002E02378E2
:1015B000012BE1D01A4C31681A48FFF7AFFEE16801
:1015C0001948FFF787FE61691848FFF7CBFE2169CC
:1015D0001748FFF7C7FEA1691648FFF77BFE216A8F
:1015E0001548FFF7BFFEE1691448FFF7BBFE144939
:1015F000144803B0BDE8F040FFF74EBE848B0008EE
:1016000003000020FE11002090120020E8130020AB
:101610003333333F8C1200207654553E5E02002057
:1016200004120020668B00082D8B0008338B000805
:10163000308B0008368B00083C8B0008398B000883
:1016400015020020818B0008104A13B5104B114C75
:101650001068127918601A7121680F48FFF73AFE76
:1016600061680E48FFF736FEA1680D48FFF732FEAD
:10167000D4F88400FFF72EFB0A49FFF737FC014638
:10168000094802B0BDE81040FFF724BE8A8B00086D
:101690000300002004120020668B00082D8B000838
:1016A000308B00080000C842338B000800000000A7
:1016B0002DE9F74F684A136801331360674B834283
:1016C00040F0B980664C00221021664801F0AAFC67
:1016D000642321460222644802F013F901221021FA
:1016E000604801F09FFC2088604DC008FEF78AFE2C
:1016F00057A3D3E90023FEF7EFFEFFF7E5F95C4CB3
:1017000029682060FFF734FA5A4920F00040FFF7BB
:10171000F5FC00286BD001F09FF940F6B8339842F1
:1017200065D92B682360DFF85091544D99F800304B
:10173000DFF84CB1012B40F08480524F2B883A885F
:101740009A4203D15049514803F09CFC7A882B8877
:101750009A4203D14E494D4803F094FCBA882B8835
:101760009A4203D14B49494803F08CFCFA882B88F4
:101770009A4203D14849454803F084FC474B2E88E0
:10178000985DFFF7ABFA2168FFF7F2F9444C01903E
:101790002168FFF7F7FAD4F80CA08046616850463C
:1017A000FFF7F0FA01464046FFF7E4F92169804669
:1017B000A068FFF7E7FA01464046FFF7DBF96169E9
:1017C000FFF7D8F9019BC4F810A0DFF8D8A036497C
:1017D000E3606061CAF8000080460191FFF78EFC6B
:1017E000002338B10199CAF80010E3610BE02368C7
:1017F0002B6098E7194640460193FFF761FCE8B17A
:10180000019BCAF80030DAF80000FFF781FC0136CE
:101810003B89B6B2DBF8004080B2B34260632E80F1
:1018200009D12249194803F02DFC0122204B1A70DE
:10183000002389F8003003B0BDE8F08F1D4B5B68D2
:10184000D3E70023DBF800202B805363F3E700BFCE
:10185000AC1C5A643BDFCF3F8C12002044130020A5
:101860009E12002000080140A4120020E413002072
:10187000E81300200000C841FE11002000120020E3
:10188000FC12002054020020908B0008150200205A
:10189000988B00089D8B0008A58B00085E02002035
:1018A00030020020A012002000007A44AC8B000817
:1018B00014020020041200202DE9F74F5C4C4FF475
:1018C0007A6200215B4802F055FFD4F81090E3687B
:1018D00048464FF07C550093FFF7FCF9DFF8548140
:1018E00007464FF0000A4646AB4629460098FFF7E8
:1018F00049FA5149FFF73EF939460190FFF7EAFBF3
:10190000019A002854D1DFF834816269A8F802A056
:10191000520006EB0A01904257DBE5690AEB020927
:101920002846A8F80490FFF7D5F94FF07C5BD4F86F
:1019300018A0009059465046FFF724FA3946FFF7A1
:1019400019F90099FFF7C6FB002842D1226AA8F8CE
:101950000690520006EB0901904253DB0FF2C80BD0
:10196000DBE900AB4FF07C5409EB02030022274671
:10197000F254A8F808301E442846FEF733FD80468E
:1019800020468946FEF750FD52465B46FEF7A4FD11
:1019900002460B4640464946FEF7E6FB0022284B2E
:1019A00080468946FFF71EF880BB03B0BDE8F08F84
:1019B0001046FFF7ADFB594608F8010B2846FFF724
:1019C000D9F80AF1010A05468FE701F8019B0130B9
:1019D000A1E75846FFF79CFBC0B2FFF77FF95146DD
:1019E000FFF7D0F93946FFF7C5F8FFF791FB4FF045
:1019F0007C5106F809005846FFF7BCF809F10109C7
:101A0000834697E701F8015B0130A5E74946404668
:101A1000FFF73AF8394606F8010B2046FFF7AAF817
:101A20000446A9E7AFF30080CDCCCCCCCCCCFC3FB6
:101A3000041200205E0200200000C0415402002079
:101A4000000038402DE9F0410024124E124FDFF81B
:101A50004C80A05DE0B1FFF73DF93946FFF792F900
:101A6000FFF756FBC0F1F5052046FFF733F9414675
:101A7000FFF788F9FFF74CFB29462330FFF7A8FC56
:101A8000052207490748043403F004FB0028E0D18D
:101A9000BDE8F0815E0200203333333F7654553E7B
:101AA000C08B000803000020012208B5064B074840
:101AB0001A70FFF775FCFFF7C5FF0022044B1A6090
:101AC000BDE80840FFF74ABDFE110020C68B0008A4
:101AD0008C12002008B5084A1378012B0BD1002383
:101AE0001370064A06490748137003F0CBFABDE8A5
:101AF0000840FFF733BD08BDFE1100209012002002
:101B0000CD8B000815020020F7B50522A049A14899
:101B100003F0C0FA08B9FFF721FD05229E499D4850
:101B200003F0B8FA08B9FFF7E3FC05229B4999488E
:101B300003F0B0FA18B9FFF7B7FFFFF70FFD052262
:101B40009749944803F0A6FA044640B9FFF7C2FF4C
:101B5000944B1A78012A08BF1C70FFF7FFFC05227E
:101B60008D498C4803F096FA08B9FFF7C1FC0522AD
:101B70008D49884803F08EFA08B9FFF765FD052204
:101B80008A49844803F086FAF0B9FFF75DFC044601
:101B9000874F884D7F4E39462046FFF787FA002849
:101BA00040F0178320468449FFF780FA834B00B149
:101BB0001C688348012184611C6002F085FDFFF7E9
:101BC00043FD8048FFF7ECFB05227F49714803F095
:101BD00061FAF0B9FFF738FC0446754F754D6D4E4C
:101BE00039462046FFF762FA002840F0FD82204681
:101BF0007149FFF75BFA714B00B15C6870480121D5
:101C0000C4615C6002F060FDFFF71EFD6D48FFF7E8
:101C1000C7FB05226D495F4803F03CFAF0B9FFF7B6
:101C200013FC0446624F634D5A4E39462046FFF777
:101C30003DFA002840F0E38220465F49FFF736FA7C
:101C40005E4B00B19C685E48012104629C6002F01A
:101C50003BFDFFF7F9FC5B48FFF7A2FB05225C495F
:101C60004C4803F017FA18B9FFF742FCFFF7FAFAED
:101C700005225849474803F00DFA08B9FFF738FC28
:101C800005225549434803F005FA70BBFFF7DCFB1A
:101C90000446474F474D3F4E39462046FFF706FA68
:101CA000002840F0B78220464349FFF7FFF9434D33
:101CB00000B1EC682046FEF7B7FB33A3D3E900235D
:101CC000FEF77CFE002840F0B0824FF07F512046A6
:101CD000FFF714FA08B14FF07F54EC60FFF708FCEF
:101CE0003E48FFF75DFBFFF7E7FD05223C49294829
:101CF00003F0D0F938BBFFF7A7FB04462C4F2D4D5E
:101D0000244E39462046FFF7D1F9002840F08F8253
:101D100020462949FFF7CAF9284D18B16869FEF72E
:101D2000D9FF044620462F49FFF7E8F900B12D4CB2
:101D30002046FFF7EDF96861FFF7DAFB2748FFF768
:101D40002FFBFFF7B9FD05222749124803F0A2F93E
:101D5000002863D1FFF778FB0446154F154D0D4E53
:101D600039462046FFF7A2F9002840F06B82204652
:101D70001149FFF79BF9114DC0B32869FEF7AAFF7F
:101D8000044633E0AFF300809A9999999999C93F35
:101D9000848B000803000020C08B0008D58B00084E
:101DA000DB8B0008140200208A8B0008E18B0008FE
:101DB000003C1C466D8C000800E00A46041200201E
:101DC00030020020E78B0008EE8B0008F48B00083F
:101DD000FA8B00087B8B0008008C0008068C00083A
:101DE0000D8C000800009643138C000820469C4987
:101DF000FFF766F9002840F0308220469949FFF746
:101E00007DF900B1974C2046FFF782F92861FFF772
:101E10006FFB9548FFF7C4FAFFF74EFD0522934983
:101E2000934803F037F970BBFFF70EFB0446914F60
:101E3000914D8F4E39462046FFF738F9002840F083
:101E40000E8220468D49FFF731F98D4D00B1AC6906
:101E50002046FEF7E9FA80A3D3E90023FEF7AEFDA2
:101E6000002840F007824FF07F512046FFF746F9E7
:101E700008B14FF07F54AC61FFF73AFB7A48FFF7A7
:101E80008FFAFFF719FD05227E49794803F002F920
:101E900038BBFFF7D9FA0446764F774D744E394672
:101EA0002046FFF703F9002840F0E68120467349F9
:101EB000FFF7FCF8724D18B1286AFEF70BFF0446D5
:101EC00020467149FFF71AF900B16F4C2046FFF721
:101ED0001FF92862FFF70CFB6348FFF761FAFFF771
:101EE000EBFC05226949624803F0D4F800282ED1A2
:101EF000FFF7AAFA04465F4F5F4D5D4E3946204614
:101F0000FFF7D4F8002840F0C28120465B49FFF774
:101F1000CDF85B4D18B1E869FEF7DCFE04462046BB
:101F20004F49FFF7CDF8002840F0BC8120464D49CD
:101F3000FFF7E4F800B14B4C2046FFF7E9F8E86101
:101F4000FFF7D6FA4848FFF72BFAFFF7B5FC052252
:101F50004F49474803F09EF808B9FFF775FB052283
:101F60004C49434803F096F828B9FFF7F7FAFFF712
:101F700069FDFFF777F9052247493D4803F08AF8E4
:101F800098B93F4BDA685A625A69DA621A699A62FA
:101F90009A691A631A6A9A63DA695A63FFF7A8FAA8
:101FA0003148FFF7FDF9FFF787FC05223B49304830
:101FB00003F070F880B9324B5A6ADA60DA6A5A6113
:101FC0009A6A1A611A6B9A619A6B1A625A6BDA6191
:101FD000FFF78EFAFFF770FC05223149244803F021
:101FE00059F898B9264BDA68DA635A695A641A695B
:101FF0001A649A699A641A6A1A65DA69DA64FFF7E8
:1020000077FA1948FFF7CCF9FFF756FC0522254966
:10201000174803F03FF880B9194BDA6BDA605A6C55
:102020005A611A6C1A619A6C9A611A6D1A62DA6CAA
:10203000DA61FFF75DFAFFF73FFC05221A490C4809
:1020400003F028F800283ED10D4BDA685A655A692A
:10205000DA651A699A6529E09A9999999999C93F17
:102060000000F04100007A43068C0008198C00083B
:1020700003000020003C1C466D8C000800E00A466E
:10208000041200201F8C000800009643258C0008D5
:102090002B8C0008318C0008378C00083D8C000820
:1020A000438C0008498C00084F8C00089A691A6616
:1020B0001A6A9A66DA695A66FFF71AFA7B48FFF7D6
:1020C0006FF9FFF7F9FB052279497A4802F0E2FF40
:1020D00080B9794B5A6DDA60DA6D5A619A6D1A617E
:1020E0001A6E9A619A6E1A625A6EDA61FFF700FAF6
:1020F000FFF7E2FB052271496E4802F0CBFFA0B961
:102100006D4BDA68DA665A695A671A691A679A690A
:102110009A671A6AC3F88020DA69DA67FFF7E8F984
:102120006248FFF73DF9FFF7C7FB052264496148A4
:1021300002F0B0FF88B9604BDA6EDA605A6F5A610C
:102140001A6F1A619A6F9A61D3F880201A62DA6F57
:10215000DA61FFF7CDF9FFF7AFFB05225949554882
:1021600002F098FF002840F09F80F5245A25524B3A
:102170006422C3E91F4596249C65E6245C668C2492
:10218000B9211C64AF244FF07D508225C3E91C1295
:10219000DC644FF07E51A524C3E90452C3E9074231
:1021A000D86699675865DA6519669A66D8635A647D
:1021B00099641A655862DA629D6219639A635C6376
:1021C000D8609961FFF778FB03B0BDE8F040FFF7F6
:1021D000C5B928682B7900908DF8043030603371D0
:1021E000FFF732F90446D6E428682B7900908DF881
:1021F000043030603371FFF727F90446F0E42868B3
:102200002B7900908DF8043030603371FFF71CF9A2
:1022100004460AE528682B7900908DF80430306078
:102220003371FFF711F9044636E5274C55E5286868
:102230002B7900908DF8043030603371FFF704F98A
:1022400004465EE528682B7900908DF804303060F4
:102250003371FFF7F9F8044682E51C4CD3E5286892
:102260002B7900908DF8043030603371FFF7ECF873
:102270000446DFE5144CFEE528682B7900908DF8C4
:10228000043030603371FFF7DFF8044607E6286852
:102290002B7900908DF8043030603371FFF7D4F85B
:1022A00004462BE6094C47E603B0F0BD068C000857
:1022B000558C000803000020041200205B8C0008ED
:1022C000618C0008678C0008CDCC4C3E0000F041CA
:1022D000044B4FF400411A780348012A18BF00222A
:1022E00000F0A0BE140200200008014010B590B01C
:1022F0001422002108A802F03DFA1422002101A8AE
:1023000002F038FA02244FF480330122CDE90D4364
:10231000CDE906234FF4C01306A80A920F9300F0EC
:1023200087FE08B172B6FEE70F23CDE901344FF402
:1023300080630390CDE90430214601A801F04EF8F6
:1023400008B172B6FEE710B010BD000080B59B4C1E
:102350009B48214694B0FEF779FFD4F88430822B55
:1023600037D0F5204FF03C08C4E91F089620A0653F
:10237000E62060668C2064234FF07D51B9222064F2
:10238000AF20A525C4E91C23E1664FF07E526165AC
:10239000E163E06461628220E1608721C4E9075360
:1023A000E365A36663642365E362A3636361854BAE
:1023B000A2672360844B22666360844BA264A062A0
:1023C000226365632161A261A360C4F88400FEF703
:1023D00049FFFFF771FA7E4823681025836163681F
:1023E0000126C361A36800244FF0020801210362A3
:1023F00002F06AF9774B784F1C7000F00FFBFFF783
:1024000075FF21462A460CA802F0B4F9734B48F236
:1024100010019A69724842F020029A619A6902F0AA
:1024200020020192019A9A6942F004029A619B6922
:10243000224603F004030293029B00F0F3FD684878
:102440000CA9CDE90D640C95CDF83C8000F010FD91
:102450004FF4004362480CA9CDE90C36CDE90E8853
:1024600000F006FD4FF482735E484FF4806CC0E9C3
:1024700000734FF400634FF4007EC0E902C30A27E3
:102480003823C0E90446C0E908448462C0E906E391
:10249000C76201F0EAF8044608B172B6FEE70146E9
:1024A0002A460CA802F066F94FF47A434E4E4F4884
:1024B000CDE90544C6E900034FF4FA733046C6E996
:1024C0000334B460B46101F03DFC08B172B6FEE7BC
:1024D0004FF4805330460CA90C9301F01CFD08B159
:1024E00072B6FEE7CDE9050005A9304601F00AFE07
:1024F000054608B172B6FEE701461C22CDE903008D
:1025000005A802F037F9294620220CA802F032F97A
:102510004FF4FA43364C37492046C4E900134FF4D0
:102520007A73C4E90555C4E90335A56001F036FCAA
:1025300008B172B6FEE7CDE9030003A9204601F019
:10254000E1FD024608B172B6FEE77023CDE90780CF
:10255000CDE90530CDE909000B9005A9204601F031
:1025600075FC08B172B6FEE74FF40053CDE90C00DC
:10257000CDE90E00109013900CA92046119301F0A4
:10258000EFFD804608B172B6FEE7204600F020F964
:102590004FF41643184D194A2846C5E900230C2369
:1025A000C5E90288C5E90538C5F81080C5F81C8062
:1025B00001F076FE804618B372B6FEE704120020E2
:1025C00000FC01080000AA42CDCC4C3D00000243B3
:1025D000300200209D120020003001400010024017
:1025E00000080140A412002044130020000800400D
:1025F000FC120020002C01408C1300200038014008
:1026000000F02AFA214BDFF88890186000F024FAD5
:10261000C9F80000304601F08DFA4146204601F02D
:102620006FFD23684FF4FA605F6300F01BFA052228
:102630002846184902F02FF81749184802F022FDE1
:10264000FEF78CFFFFF7FEF928460522114902F03C
:1026500022F8134C134D144E00F0FEF9D9F8003057
:10266000C01AB0F5FD7F05D300F0F6F9C9F80000F7
:10267000FFF74AFA2378012B05D132882989914244
:1026800004BF0A4A1370FFF723FEE5E79412002007
:102690009812002003000020738C0008150200200F
:1026A000FE1100205402002000120020140200201D
:1026B0000E4B82B09A6942F001029A619A6902F067
:1026C00001020092009ADA6942F08052DA61DB6915
:1026D000074A03F080530193019B536823F0E063A2
:1026E00043F00073536002B0704700BF0010024017
:1026F0000000014010B5044686B01022002102A857
:1027000002F038F82268164B9A4226D103F560434E
:102710009A69144842F480529A619A6902A902F4B3
:1027200080520092009A9A6942F004029A619B6971
:10273000202203F004030193019B0223CDE902232D
:102740000323059300F094FB402100230548CDE9C5
:10275000021302A9049300F08BFB06B010BD00BF6A
:1027600000300140000801400268084B82B09A42E4
:102770000AD103F564439A6942F400629A619B6945
:1027800003F400630193019B02B07047002C0140E9
:1027900007B50E4B02689A4215D103F50233DA6988
:1027A000012142F00402DA61DB69002203F0040334
:1027B00001931E20019B00F079F91E2003B05DF803
:1027C00004EB00F0A5B903B05DF804FB000800407D
:1027D00010B5044686B01022002102A801F0CAFFFD
:1027E00022680D4B9A4214D103F564439A690B4851
:1027F00042F004029A619B694FF4807203F0040373
:102800000193019B022302A9CDE90223059300F065
:102810002FFB06B010BD00BF002C01400008014096
:1028200010B5044686B01022002102A801F0A2FFD4
:1028300022681B4B9A4230D103F558439A691948D4
:1028400042F480429A619A6902A902F4804200929D
:10285000009A9A69002442F004029A619B694FF43D
:10286000007203F004030193019B0223CDE90223CC
:102870000323059300F0FCFA4FF48063094802A992
:10288000CDE90234049400F0F3FA252022462146D3
:1028900000F00CF9252000F03BF906B010BD00BF98
:1028A0000038014000080140FEE7FEE7FEE7FEE7D2
:1028B000FEE770477047704700F0C2B8014801F06A
:1028C00067B900BF44130020014801F0C3BD00BF39
:1028D0008C1300200120704708B501F021FF16235A
:1028E00003604FF0FF3008BD08B501F019FF162353
:1028F0000360FEE770B50D4614460E46731B9C42FE
:1029000001DC204670BDAFF3008006F8010BF5E74F
:1029100070B50D4614460E46731B9C4201DC2046E2
:1029200070BD16F8010BAFF30080F5E74FF0FF30F4
:1029300070474FF4005300204B60704701207047F0
:10294000002070470B4A0346116810B509B90A49BF
:102950001160106809490A4C0344091B8B4206D9CF
:1029600001F0DEFE0C2303604FF0FF3010BD13605A
:10297000FCE700BFEC1300202814002000500020CA
:102980000004000070470000002103E00B4B5B587F
:10299000435004310A480B4B42189A42F6D30A4A74
:1029A00002E0002342F8043B084B9A42F9D3FFF7B8
:1029B000E9FF01F0BBFEFFF7C9FC70474C9100082E
:1029C00000000020E8010020E80100202814002079
:1029D000FEE7000038B50E4B054618784FF47A73C1
:1029E000B3FBF0F30B4A1068B0FBF3F000F09EF875
:1029F000044658B90F2D09D8024629464FF0FF303A
:102A000000F054F82046044B1D6038BD0120FCE75F
:102A10000C0000200800002010000020074A08B524
:102A20001368032043F01003136000F02DF800201A
:102A3000FFF7D0FFFFF73CFE002008BD002002405A
:102A4000034A044B11681B780B441360704700BFA6
:102A5000F01300200C000020014B1868704700BFE5
:102A6000F013002038B50446FFF7F6FF0546631C57
:102A70001EBF044B1B78E418FFF7EEFF431BA34275
:102A8000FAD338BD0C00002007490302CA6803F4DA
:102A9000E06322F4E0621204120C134343F0BF63BC
:102AA00043F40033CB60704700ED00E0164B30B5C7
:102AB000DC68C4F30224C4F10703251D042B28BFDE
:102AC0000423062D4FF0FF3598BF002405FA03F3C9
:102AD00088BF033C21EA0303A34005FA04F422EA79
:102AE0000402002843EA0203ACBF00F16040074A39
:102AF0004FEA0313DBB2ABBF00F5614000F00F00FB
:102B000080F80033135430BD00ED00E014ED00E018
:102B1000002808DB0123420900F01F0003FA00F03F
:102B2000014B43F82200704700E100E00138B0F1AA
:102B3000807F0BD24FF0E023F021054A586182F8E4
:102B400023100020072298611A6170470120704706
:102B500000ED00E090F82130022B06D004238363BF
:102B6000002380F820300120704703681A6822F0A3
:102B70000E021A601A6822F001021A600123D0E9DD
:102B80000F218B4053604FF4807303840020704703
:102B900008B590F82130022B03D004238363012071
:102BA00008BD03681A6822F00E021A601A6822F043
:102BB00001021A60174A93421CD0143293421BD070
:102BC000143293421AD0143293421AD014329342E0
:102BD0001AD0143293420CBF4FF480134FF080731D
:102BE0000D4A53604FF480730384436B7BB1984765
:102BF0000020D5E70123F3E71023F1E74FF48073BA
:102C0000EEE74FF48053EBE74FF48033E8E71846E4
:102C1000C6E700BF0800024000000240114AD36826
:102C200013F0100305D01049CB6943F00203CB61C8
:102C30001023D268500706D50B4943F00403CA6934
:102C400042F00102CA61074AD169C90708D506489E
:102C5000C16941F00401C161D16921F00101D16173
:102C6000D360704700200240F8130020064B18691B
:102C700010F0800007D0054A5A6002F188325A608D
:102C80001869C0F3C0107047002002402301674557
:102C9000034A0020136943F080031361704700BFAB
:102CA00000200240014BD869704700BFF813002094
:102CB00070B50546FFF7D0FE0646114CE368D8070D
:102CC00012D4E368990644BF2023E360E368DA0680
:102CD00006D4E369DB0703D4E06810F0040007D0F2
:102CE000FFF79CFF012003E06B1CE7D00DB9032028
:102CF00070BDFFF7B1FE801BA842DFD9F7E700BF28
:102D0000002002402DE9F84FDFF890901E4699F818
:102D100018300446012B0F4690463DD001234CF25B
:102D2000503089F81830FFF7C3FF80BB012C03D067
:102D3000022C0CBF022404240025AB46DFF860A05F
:102D40002801C0F12002A0F1200306FA02F228FABD
:102D500000F0C9F81CB0104326FA03F31843DAF860
:102D6000103080B243F00103CAF8103027F8150084
:102D70004CF25030FFF79CFFDAF8103023F00103DB
:102D8000CAF8103018B90135EBB29C42D8D80023EC
:102D900089F81830BDE8F88F0220FBE7F81300200F
:102DA000002002400022064BDA61064B1A6942F00D
:102DB00002021A6158611A6942F040021A617047B2
:102DC000F8130020002002402DE9F041264F05466F
:102DD0003B7E8846012B44D001243C7603684CF2AC
:102DE0005030022B1AD1FFF763FF20B101200023DE
:102DF0003B76BDE8F0811D4CF86123694CF2503000
:102E000043F004032361236943F040032361FFF788
:102E10004FFF236923F004032361E8E7FFF748FF2E
:102E20000028E3D14FF0FF33C8F800302046AE68E9
:102E30000E4CD5E9023203EB8223B342D7D9304698
:102E4000FFF7B0FF4CF25030FFF732FF236923F059
:102E50000203236110B1C8F80060C8E706F5806678
:102E6000E7E70220C5E700BFF8130020002002407A
:102E70002DE9F74F00221646644F654BDFF894C1E9
:102E8000DFF894E10D6835FA06F402D103B0BDE82D
:102E9000F08F4FF0010808FA06F805EA080438EA4E
:102EA00005057BD14D68032D07D8013D022D00F2A9
:102EB0008880DFE805F0969BA100122D00F0998034
:102EC0006ED8112D00F08F80FF2C98BF82464FF0F6
:102ED0000F0988BF00F1040A4FEA8605DAF800807E
:102EE00088BF203D09FA05FB28EA0B0802FA05F520
:102EF00048EA0505CAF80050D1F804A01AF0805F2E
:102F00004CD0BD6926F0030845F00105BD61BD69DF
:102F100008F1804805F00105019508F5803806F0B4
:102F2000030B019D4FEA8B0BD8F8085009FA0BF9F7
:102F300025EA0909394DA84262D005F58065A84205
:102F400060D005F58065A8425ED005F58065A84291
:102F50000CBF0325042505FA0BF545EA0905C8F859
:102F600008501D681AF4803F14BF2543A5431D6017
:102F70005D681AF4003F14BF2543A5435D609D685A
:102F80001AF4801F14BF2543A5439D60DD681AF421
:102F9000001F14BF2C4325EA0404DC60013671E7EE
:102FA000DFF87C904D450CD017D8A9F580194D4518
:102FB00007D009F570294D4503D0A9F580194D4575
:102FC00082D18A68D2B1012A08BFC0F810804FF0C0
:102FD000080218BFC0F8148076E76545F1D0754542
:102FE000EEE7CA6870E7CA6804326DE7CA6808325B
:102FF0006AE7CA680C3267E7002265E7042263E7E4
:103000000025A8E70125A6E70225A4E70010024055
:10301000000401400000311000003210000801409F
:10302000000022100AB1016170470904FBE70000AB
:103030002DE9F341054638B30368DB0710D42B684C
:103040009F075ED42B68190700F195802B685A07FB
:1030500000F1C180E869002840F02C81002029E0BF
:10306000904C636803F00C03042B07D0636803F0F3
:103070000C03082B0AD16368DE0307D523689C0381
:10308000DDD56B68002BDAD1012013E06B68B3F556
:10309000803F12D1236843F480332360FFF7DCFCC8
:1030A000064623689803CAD4FFF7D6FC801B642821
:1030B000F7D9032002B0BDE8F0819BB9236823F45F
:1030C00080332360236823F480232360FFF7C4FC4C
:1030D000064623689903B2D5FFF7BEFC801B64281F
:1030E000F7D9E6E7B3F5A02F236803D143F4802393
:1030F0002360CFE723F480332360236823F4802305
:10310000CBE7684C636813F00C0F07D0636803F0DB
:103110000C03082B10D16368DA030DD423689B07D6
:1031200002D52B69012BAFD123686A6923F0F8031C
:1031300043EAC203236085E72A695B4B6AB1012237
:103140001A60FFF789FC064623689F07ECD4FFF757
:1031500083FC801B0228F7D9ABE71A60FFF77CFCE1
:103160000646236898077FF56DAFFFF775FC801B57
:103170000228F6D99DE7AA694A4E4B4BE2B10122DB
:10318000C3F88024FFF768FC0446736A9B070DD5DB
:103190004FF4FA52454B1B68B3FBF2F3019300BFA7
:1031A000019B5A1E0192002BF9D14FE7FFF754FC07
:1031B000001B0228E9D97CE7C3F88024FFF74CFC08
:1031C0000446736A9F077FF541AFFFF745FC001B7C
:1031D0000228F6D96DE7334CE369D80024D40127DF
:1031E000E36943F08053E361E36903F080530093A4
:1031F000009B2F4E3368D90518D5EB68012B26D1DB
:10320000236A43F001032362FFF726FC41F288386A
:103210000646236A9B073FD5002F3FF41BAFE369A7
:1032200023F08053E36115E70027E2E7336843F4B6
:1032300080733360FFF710FC80463368DA05DCD416
:10324000FFF70AFCA0EB08006428F6D931E7ABB918
:10325000236A41F2883823F001032362236A23F0B2
:1032600004032362FFF7F8FB0646236A9807D3D5C9
:10327000FFF7F2FB801B4045F7D91AE7052B236ABD
:1032800003D143F004032362BAE723F0010323626E
:10329000236A23F00403B6E7FFF7DEFB801B4045FB
:1032A000B7D906E7001002400000424208000020A3
:1032B000007000402A4C636803F00C03082B3ED0DA
:1032C0000022284B02281A662CD1FFF7C5FB0646C0
:1032D0002368990120D42B6AB3F5803F05D1626839
:1032E000A96822F400320A436260696A62680B438B
:1032F00022F474121343012263601A4B1A66FFF71B
:10330000ABFB054623689A013FF5A8AEFFF7A4FB87
:10331000401B0228F6D9CCE6FFF79EFB801B022853
:10332000D6D9C6E6FFF798FB054623689B017FF5D3
:1033300095AEFFF791FB401B0228F6D9B9E60128AC
:103340003FF4B8AE63682A6A03F4803191427FF497
:103350009BAE6A6A03F4701393423FF47FAE93E628
:10336000001002400000424230B5184B87B002AC5A
:1033700003F11005224618685968083303C2AB42AE
:103380001446F7D140F201231149ADF804304B68DF
:1033900003F00C02082A17D1C3F3834218326A449F
:1033A000DB0312F8100C0CD54B680A4AC3F34043F8
:1033B000504318336B4413F8143CB0FBF3F007B0E0
:1033C00030BD054B5843FAE70248F8E7908C0008F7
:1033D0000010024000127A0000093D002DE9F04182
:1033E0000D46044610B90120BDE8F081444A136837
:1033F00003F007038B4228D321688E0730D4CA0715
:1034000043D43F4A136803F00703AB4265D82268F0
:103410003C4D12F0040F6CD1130706D56B6822697E
:1034200023F4605343EAC2036B60FFF79DFF6B68B0
:10343000354AC3F30313D35CD840344B1860344B84
:103440001868FFF7C7FA0020CEE7136823F00703D8
:103450000B431360136803F007038B42C3D1CBE720
:10346000284B11F0040F1EBF5A6842F4E0625A6004
:10347000080742BF5A6842F460525A605A68A0680E
:1034800022F0F00202435A60B9E762681D4E012A39
:1034900033681AD113F4003FA5D0736841F288381D
:1034A00023F0030313437360FFF7D6FA07467368EC
:1034B000626803F00C03B3EB820FA2D0FFF7CCFAE3
:1034C000C01B4045F3D903208EE7022A02D113F036
:1034D000007FE1E713F0020FDEE7136823F0070334
:1034E0002B431360136803F00703AB427FF47BAFF9
:1034F0008DE76B68E16823F4E0630B436B608BE757
:103500000020024000100240788C000808000020D3
:1035100010000020044B054A5B68C3F30223D35C10
:10352000034A1068D840704700100240888C000899
:1035300008000020044B054A5B68C3F3C223D35C38
:10354000034A1068D840704700100240888C000879
:10355000080000202DE9F3411C4616460F4605469B
:10356000FFF77AFA3444241AFFF776FA8046234BA1
:103570001B68C3F3CB3363432A680193936837EA2C
:10358000030301D000202EE0731CF7D0FFF764FA8C
:10359000A0EB0800A04229D32B685A6822F0E00271
:1035A0005A606A68B2F5827F0AD1AA68B2F5004F04
:1035B00002D0B2F5806F03D11A6822F040021A607F
:1035C000AA6AB2F5005F07D11A6822F400521A60A5
:1035D0001A6842F400521A60012385F85130002322
:1035E000032085F8503002B0BDE8F081019B002B2C
:1035F000019B08BF0024013BBEE700BF080000207C
:1036000038B5134642680446B2F5827F16D1826807
:10361000B2F5004F02D0B2F5806F0FD12568B2F538
:10362000806F286820F04000286007D10A460121F9
:103630002046FFF78FFF20B9002038BD0A468021C1
:10364000F6E7636D032043F020036365F5E710B5EB
:1036500013460A4680210446FFF77CFF20B1032071
:10366000636D43F02003636510BD10B50446002868
:1036700051D0436A002B4AD14268B2F5827F00D014
:10368000C3610023A36294F8513003F0FF0223B911
:10369000204684F85020FFF72DF80223226884F892
:1036A00051301368A06823F040031360636800F48E
:1036B000044003F482730343E068A16900F40060EE
:1036C0000343206900F002000343606900F0010039
:1036D000034301F400700343E069090C00F0380073
:1036E0000343206A01F0040100F080000343A06A54
:1036F00000F40050034313605160D369002023F4A9
:103700000063D3610123606584F8513010BD00234C
:10371000C0E90433B5E70120F8E72DE9F7431E4679
:1037200090F850300446012B0D4691460A9F00F058
:10373000E680012380F85030FFF78EF994F851307D
:103740008046012B6268D9B20AD0B2F5827F40F080
:10375000D480A368002B40F0D080042940F0CD80B5
:10376000002D40D0B9F1000F3DD0002E3BD094F891
:103770005130C4F83890042B1CBF052384F8513015
:1037800000236365C4E910332368E687E686196879
:10379000A687490658BF1968256358BF41F0400104
:1037A000A68658BF1960E168B1F5006F52D10AB121
:1037B000012E07D135F8022BDA60E38E2563013B39
:1037C0009BB2E3860125E38E9BB273B9E38F9BB274
:1037D0005BB9424639462046FFF739FF002800F022
:1037E00081802023636501202BE021688B689E0780
:1037F0000DD5E38E9BB253B14DB10025236B33F849
:10380000022BCA602363E38E013B9BB2E3868A6886
:1038100012F001020CD0E38F9BB24BB11546C96880
:10382000A36B23F8021BA363E38F013B9BB2E387E7
:10383000FFF712F9A0EB0800B842C4D3781CC2D03D
:103840000320012384F85130002384F8503003B062
:10385000BDE8F0830AB1012E08D12A781A73236BD0
:1038600001332363E38E013B9BB2E38601252DE008
:103870002268936899070ED5E38E9BB25BB155B170
:103880000025236B1B781373236B01332363E38EB3
:10389000013B9BB2E3862268916811F001010DD0D3
:1038A000E38F9BB253B10D46D268A36B1A70A36B22
:1038B0000133A363E38F013B9BB2E387FFF7CCF8AF
:1038C000A0EB0800B8420AD37B1CB9D1E38E9BB2AF
:1038D000002BCDD1E38F9BB2002BC9D179E7002F0C
:1038E000F4D1ADE7A368002BABD123680190DA686F
:1038F00001929B680193019BA3E70220A1E70220AC
:10390000A5E72DE9F7431D4643680446B3F5827FDA
:10391000894617460CD1836853B9042380F8513087
:10392000134600950A46FFF7F8FE03B0BDE8F083A2
:1039300094F85030012B00F08680012384F8503039
:10394000FFF78AF894F851308046012BD8B278D12D
:10395000B9F1000F5CD0002F5AD000260423A268D2
:1039600084F85130B2F5004F6665C4E91066E78708
:103970002368C4F83890A7872663A686E68607D111
:103980001A6822F040021A601A6822F480421A6013
:103990001A6856065EBF1A6842F040021A60E36871
:1039A000F3B1E38F9BB2FBB123689A68D20739D594
:1039B000DA68A36B23F8022BA363E38F013B9BB26E
:1039C000E387EEE723689A68D00718D51B7BA26BC4
:1039D0001370A36B0133A363E38F013B9BB2E387B7
:1039E000E38F9BB2002BEDD1424629462046FFF7DC
:1039F00007FE18BB606D003818BF012008E0FFF714
:103A00002BF8A0EB0800A84209D3691CE8D00320DA
:103A1000012384F85130002384F8503085E7002DCD
:103A2000DED1F4E7FFF718F8A0EB0800A84202D3B4
:103A30006B1CB6D0EBE7002DB3D1E8E7202363651C
:103A4000D8E70220E4E702206FE70000036A70B5C0
:103A500023F001030362036A446882690D6822F05F
:103A600073022A438D6823F002032B430A4DA842B8
:103A70000BD1CD6823F008032B4324F44074D1E923
:103A80000556354323F004032C43446082614A68A1
:103A90004263036270BD00BF002C0140036A70B531
:103AA00023F480730362036A4468C2690D6822F0DC
:103AB00073022A438D6823F4007343EA05230B4DF8
:103AC000A8420DD1CD6823F4006343EA052324F412
:103AD0004054D1E90556354323F4806344EA051484
:103AE0004460C2614A68C263036270BD002C014039
:103AF000036A30B523F480530362036A4468C269E1
:103B00000D6822F4E64242EA05228D6823F4005350
:103B100043EA0533064DA84202BF4D6924F48044B0
:103B200044EA85144460C2614A680264036230BD9D
:103B3000002C014090F83D30012B20D1022380F869
:103B40003D300368DA6842F00102DA600D4A9342C0
:103B50000AD0B3F1804F07D0A2F59432934203D03C
:103B600002F58062934204D19A6802F00702062AA5
:103B700003D01A6842F001021A6000207047012049
:103B8000704700BF002C0140704770477047704776
:103B9000036810B51A69044691070ED5DA689207D2
:103BA0000BD56FF002021A61012202779B699B0715
:103BB00077D0FFF7EAFF0023237723681A695007BD
:103BC00010D5DA6851070DD56FF004021A61022290
:103BD00022779B69204613F4407F68D0FFF7D5FF1A
:103BE0000023237723681A6912070FD5DA681007B4
:103BF0000CD56FF008021A6104222277DB69204697
:103C000099075AD0FFF7C1FF0023237723681A6969
:103C1000D20610D5DA68D0060DD56FF010021A6101
:103C200008222277DB69204613F4407F4BD0FFF750
:103C3000ACFF0023237723681A69D10708D5DA6817
:103C4000D20705D56FF0010220461A61FDF730FD5D
:103C500023681A69100608D5DA68110605D56FF0D1
:103C6000800220461A6100F0A2FA23681A695206FF
:103C700008D5DA68500605D56FF0400220461A6173
:103C8000FFF785FF23681A69910622D5DA68920644
:103C90001FD56FF020022046BDE810401A6100F0E9
:103CA00085BAFFF771FF2046FFF770FF83E7FFF744
:103CB0006BFF2046FFF76AFF92E7FFF765FF20469C
:103CC000FFF764FFA0E7FFF75FFF2046FFF75EFF07
:103CD000AFE710BD1A4A036890420AD0B0F1804F96
:103CE00007D0A2F59432904203D002F58062904250
:103CF00015D14A6823F070031343114A90420AD049
:103D0000B0F1804F07D0A2F59432904203D002F573
:103D10008062904203D1CA6823F4407313434A6916
:103D200023F08003134303608B68C3620B688362D4
:103D3000034B984204BF0B6903630123436170473F
:103D4000002C014010B5044630B390F83D3003F02C
:103D5000FF021BB980F83C20FEF71AFD0223206801
:103D600084F83D30211DFFF7B5FF0123002084F8C2
:103D7000463084F83E3084F83F3084F8403084F890
:103D8000413084F8423084F8433084F8443084F879
:103D9000453084F83D3010BD0120FCE710B50446E5
:103DA00030B390F83D3003F0FF021BB980F83C209F
:103DB000FEF7DAFC0223206884F83D30211DFFF76E
:103DC00089FF0123002084F8463084F83E3084F8CF
:103DD0003F3084F8403084F8413084F8423084F831
:103DE000433084F8443084F8453084F83D3010BDC9
:103DF0000120FCE7036A70B523F010030362036A35
:103E0000446882690D6822F4E64242EA05228D6820
:103E100023F0200343EA05130B4DA8420DD1CD68D2
:103E200023F0800343EA051324F44064D1E90556E6
:103E3000354323F0400344EA8504446082614A68C4
:103E40008263036270BD00BF002C014038B590F85A
:103E50003C300446012B52D00123082A80F83C3024
:103E60003CD006D8C2B1042A27D0002084F83C00F8
:103E700038BD0C2AF9D10068FFF73AFE23680969BA
:103E8000DA6942F40062DA61DA6922F48062DA61A6
:103E9000DA6942EA012230E00068FFF7D7FD2368C3
:103EA00009699A6942F008029A619A6922F004024B
:103EB0009A619A690A439A61D7E70068FFF79AFF07
:103EC000236809699A6942F400629A619A6922F446
:103ED00080629A619A6942EA0122ECE70068FFF782
:103EE000DDFD23680969DA6942F00802DA61DA69FE
:103EF00022F00402DA61DA690A43DA61B5E70220E6
:103F0000B6E710B584680A4324F47F4442EA0322EA
:103F10002243826010BD70B590F83C300446012BFE
:103F20004FF0020027D0012384F83D00206884F878
:103F30003C30836823F47F4323F0770383600B686E
:103F4000602B4DD032D8402B62D015D8202B03D017
:103F500009D833F0100208D1826822F070021343AE
:103F600043F0070320E0302BF6D00123002084F833
:103F70003D3084F83C0070BD502BF6D14A68CE68C5
:103F8000016A056A21F00A0125F0010505628369CD
:103F90000A4323F0F00343EA061383610262836855
:103FA00023F0700343F057038360DEE7702B0CD0DF
:103FB000B3F5005FD9D1CB68D1E90121FFF7A1FFAB
:103FC0002268936843F4804308E0CB68D1E901217B
:103FD000FFF797FF2268936843F077039360C4E785
:103FE0004D68CE68016A21F0100101628269036A9E
:103FF00022F4704223F0A00343EA051342EA06329A
:1040000082610362836823F0700343F06703CBE7A8
:104010004A68CE68016A056A21F00A0125F00105A7
:10402000056283690A4323F0F00343EA06138361C0
:104030000262836823F0700343F04703B4E710B5CE
:104040000124036A01F01F018C4023EA0403036288
:10405000036A8A401A43026210BD000010B504468C
:1040600029B990F83E30012B21D0012010BD042940
:1040700007D190F83F30012BF7D1022384F83F306D
:1040800018E0082907D190F84030012BEDD1022328
:1040900084F840300EE090F84130012BE5D104293E
:1040A000EBD00829F3D0022380F8413002E002234C
:1040B00080F83E3001222068FFF7C1FF23680E4AD6
:1040C00093420AD15A6C42F400425A649A6802F050
:1040D0000702062A0BD10020C8E7B3F1804FF5D0C4
:1040E000064A9342F2D002F580629342EED01A68FB
:1040F00042F001021A60EEE7002C0140000400408B
:10410000FFF7ACBF30B590F83C300246012B4FF0C2
:10411000020022D0136882F83D005C680D6824F02C
:1041200070042C4398685C600C4CA3420AD0B3F135
:10413000804F07D0A4F59434A34203D004F58064E3
:10414000A34204D1496820F0800001439960012313
:10415000002082F83D3082F83C0030BD002C014048
:1041600090F83C30012B1FD0CB688A6823F4407351
:1041700013434A6823F4806313430A6823F40063FB
:1041800013430A6923F4805313434A6923F4005309
:104190001343CA6923F48043134302685364002322
:1041A00080F83C30184670470220704770477047CF
:1041B0000368DA6822F49072DA605A6922F0010228
:1041C0005A61026B012A02BFDA6822F01002DA603B
:1041D000202380F83E3000230363704710B5044667
:1041E0000368C1681A6922F440520A431A6182685E
:1041F0000069D9680243606921F4B05121F00C01D3
:1042000002430A43DA605A69A16922F440720A4300
:104210005A610E4A934215D1FFF78CF91923434393
:10422000626820689200B3FBF2F36422B3FBF2F100
:1042300002FB11331B013233B3FBF2F303EB011327
:10424000836010BDFFF766F9E8E700BF0038014062
:10425000F8B504460E4617461D462268136836EA2E
:10426000030301D1002014E06B1CF7D095B923683B
:104270000320DA6822F4D072DA605A6922F001026F
:104280005A61202384F83D3084F83E30002384F8BE
:104290003C30F8BDFEF7E0FBC01B8542DDD2E6E70F
:1042A00010B5044640B390F83D3003F0FF021BB94F
:1042B00080F83C20FEF7B4FA2423226884F83D30CD
:1042C000D368204623F40053D360FFF787FF2368A9
:1042D00000201A6922F490421A615A6922F02A02D7
:1042E0005A61DA6842F40052DA602023206484F8CC
:1042F0003D3084F83E3010BD0120FCE72DE9F84345
:10430000994690F83D300446202B0E46174648D17A
:10431000002944D0002A42D090F83C30012B40D0F4
:104320000123002580F83C302123056480F83D30CE
:10433000FEF792FBA3688046B3F5805FA784E7840D
:1043400003D123690BB935461E46002384F83C305F
:10435000E38C9BB253B94B46424640212046FFF7BF
:1043600077FF50B9202384F83D3007E04B464246A2
:1043700080212046FFF76CFF10B10320BDE8F883D1
:1043800022684EB935F8023BC3F308035360E18C51
:10439000013989B2E184DBE716F8013BF6E7012039
:1043A000ECE70220EAE77047704708B50023406A4F
:1043B000C385C384FFF7F8FF08BD704707B5816860
:1043C000836AB1F5805F026834D10169002934D174
:1043D0005268C2F3080223F8022BC28D8362013AAD
:1043E00092B2C2851ABB0368D96821F02001D96056
:1043F000D96821F48071D960596921F001015961AE
:10440000202180F83E10016B012920D10263D96878
:1044100021F01001D9601968C90605D501921A6802
:1044200001925B680193019B818DFFF7C6FF03B08A
:104430005DF804FB39B9016929B95268D2B21A7022
:10444000836A0133C9E7526802F07F02F7E7FCF79D
:1044500013FFECE7036837B51A68044612F00F0F34
:10446000D9685D690CD1950667D58D0665D590F83C
:104470003E30222B5BD103B0BDE83040FFF79EBF3A
:1044800005F0010001F49075054356D0D50705D518
:10449000CB0542BF236C43F001032364550704D5C9
:1044A00018B1236C43F002032364930704D518B1B9
:1044B000236C43F004032364150707D501F02003A0
:1044C00003431EBF236C43F008032364236C73B3C0
:1044D000920608D58B0606D594F83E30222B02D1E1
:1044E0002046FFF76BFF236820465B69256C03F0CD
:1044F000400305F008051D431BD0FFF759FE236854
:104500005A69550610D55A69A06B22F040025A61CB
:1045100050B1534B4363FEF73BFB40B1A06B436B81
:1045200003B0BDE8304018472046FFF73DFF03B019
:1045300030BDFFF739FF2564F9E7206B012855D11D
:10454000D00653D5CD0651D5002101911A680192AC
:104550005A680192019A5A6912F040022AD0A06B5F
:104560000268526892B2002AE1D0A58D9542DED948
:10457000E2858269202A15D0DA6822F48072DA6036
:104580005A6922F001025A615A6922F040025A61C6
:10459000202284F83E202163DA6822F01002DA60DB
:1045A000FEF7D8FAE38DA18DC91A89B22046FFF72C
:1045B00004FFBCE7E18D88B2E18D89B20029B6D055
:1045C000A18D091A89B20029B1D0D86820F4907061
:1045D000D860586920F001005861202084F83E001E
:1045E0002263DA6822F01002DA60DFE7100626D5CF
:1045F0000D0624D594F83D20212A98D1A168226A7D
:10460000B1F5805F16D12169A1B932F8021BC1F35F
:10461000080159602262E28C013A92B2E284002AD7
:1046200085D1DA6822F08002DA60DA6842F040026E
:10463000DA607CE7511C216212785A60EBE7500681
:104640007FF575AF4A067FF572AFDA68204622F033
:104650004002DA60202384F83D30FFF7A4FE66E7CD
:10466000AB430008C2858285816203462222002076
:10467000186483F83C0083F83E201B68DA6842F433
:104680008072DA605A6942F001025A61DA6842F0D7
:104690002002DA60704770B490F83E60202E10D18E
:1046A00061B15AB190F83C40012C0AD0012480F845
:1046B0003C400024046370BCFFF7D4BF012070BCF1
:1046C00070470220FBE70000F8B504468669256ABA
:1046D00030460F46E169FCF74DFA2946FCF74AFAE5
:1046E000294620602846FCF745FA06F100460146B7
:1046F0003046FCF73DFAA560606067B10023237384
:104700006373A373E37323746374A374E3742375F3
:104710006375A375E375F8BD002101F0D9BA0000F7
:10472000014B1868704700BF1400002070B50026C8
:104730000C4D0D4C641BA410A64209D104F0CEF917
:1047400000260A4D0A4C641BA410A64205D170BD78
:1047500055F8043B98470136EEE755F8043B984777
:104760000136F2E7449100084491000844910008A2
:104770004891000803460244934200D1704703F871
:10478000011BF9E7002B2DE9F0471F46BBBF03F1E2
:1047900000431F4600232D2388B01446129A109D13
:1047A0001370149BDDF84CA023F02008B8F1460FDD
:1047B00005D0B8F1450F00D10135022300E00323F5
:1047C00007AA049206AACDE902A2CDE90035224645
:1047D0003B4601F015FBB8F1470F064602D1119B8D
:1047E000DB0722D5B8F1460F06EB050910D1337867
:1047F000302B0AD10022002320463946FCF7D4F89A
:1048000018B9C5F10105CAF80050DAF8003099442A
:104810000022002320463946FCF7C6F808B1CDF83F
:104820001C903022079B4B4507D33046079B159AB7
:104830009B1B136008B0BDE8F087591C07911A70E4
:10484000F0E70346F7B5002903F8022BB6BF2D2287
:104850002B224942092942702BDD0DF10704A446A1
:104860000A2791FBF7F60A46A64607FB1615632AA8
:1048700005F13005314604F1FF340EF8015CF0DC3F
:104880003031AEF1020504F8011C2946441C614593
:104890000AD30DF10902A2EB0E02654588BF002282
:1048A0001344181A03B0F0BD11F8012B04F8012FBE
:1048B000EDE7302330318370C170031DF1E7000054
:1048C0002DE9F04F91B00C46DDF8688016461F4682
:1048D000054602F0E9FB036818460993FBF738FC2C
:1048E00000230E93D8F800300A90073323F0070313
:1048F00003F1080294F81890D4F800B0C8F800202A
:10490000D3E90023C4E91223D4E9128A2AF0004330
:104910000B934FF0FF3240469C4B0B99FCF776F817
:1049200070BB4FF0FF324046984B0B99FCF750F8A4
:1049300030BB0022002340465146FCF73FF810B13F
:104940002D2384F84330924B9248B9F1470F94BF1E
:104950009846804603234FF0000A23612BF004039E
:10496000236033462146284600970FAA00F0D4F969
:10497000013040F090804FF0FF3011B0BDE8F08F73
:104980004246534640465146FCF740F848B1BAF11A
:10499000000FB8BF2D238048B8BF84F843307F4B49
:1049A000D3E7636809F0DF015A1C42D10623636034
:1049B000002206920EAACDE904920DAA4BF4806360
:1049C00003920DF13302CDE9013223606368424660
:1049D0000093284653460B91FFF7D4FE0B9980466F
:1049E00047290D9908D1C81C02DB6368994240DD54
:1049F000A9F102095FFA89F9B9F1650F1FD84A4692
:104A0000013904F150000D91FFF71BFF0E9A824609
:104A10001318012A236102DC2268D20701D5013371
:104A200023619DF83330002B9BD02D2384F8433035
:104A300097E74729BCD1002BBAD10123B7E7B9F1D9
:104A4000660F18D1002963680BDD216113B9226854
:104A5000D00702D501330B4423614FF0000AA16552
:104A6000DFE713B92268D20701D50233F4E7012347
:104A7000F2E74FF067090E9B994205DB236821613D
:104A8000D807EAD54B1CE7E70029CCBF0122C1F1CA
:104A900002021344E0E723685A0507D4236942461B
:104AA00031462846B84701302BD164E7B9F1650F8C
:104AB00040F2DD80D4E9120100220023FBF774FFED
:104AC000002833D0012331462846354AB847013003
:104AD0003FF451AFDDE90D239A4202DB2368D8078A
:104AE0000FD5DDE9092331462846B84701303FF4A8
:104AF00042AF4FF0000804F11A090E9B013B4345F9
:104B000009DC23689B0700F10281E0680F9B984253
:104B1000B8BF184631E701234A4631462846B84710
:104B200001303FF428AF08F10108E6E70D9B002BA8
:104B300038DC012331462846194AB84701303FF492
:104B40001AAFDDE90D23134302D12368D907D8D565
:104B5000DDE9092331462846B84701303FF40BAF61
:104B60004FF0000904F11A0A0D9B5B424B4501DC32
:104B70000E9B94E70123524631462846B847013040
:104B80003FF4F9AE09F10109EEE700BFFFFFEF7F47
:104B9000A88C0008AC8C0008B48C0008B08C00080D
:104BA000CB8B00080E9AA36D9A42A8BF1A46002A22
:104BB000914637DC4FF0000B29EAE97904F11A023B
:104BC000D4F858A0AAEB09035B4533DCDDE90D23DB
:104BD0009A423BDB2368DA0738D40E9B0D99A3EB8E
:104BE0000A02A3EB01099145A8BF9146B9F1000F54
:104BF00034DC4FF0000829EAE97904F11A0ADDE90A
:104C00000D239B1AA3EB090343457FF77AAF0123DA
:104C1000524631462846B84701303FF4ACAE08F161
:104C20000108ECE71346314642462846B8470130B2
:104C3000C0D1A0E60123314628460B92B847013087
:104C40003FF499AE0B9A0BF1010BB9E73146DDE960
:104C500009232846B8470130BFD18CE64B46314680
:104C6000284608EB0A02B8470130C2D183E60E9A03
:104C7000012A01DCDB0737D50123424631462846AD
:104C8000B84701303FF477AEDDE9092331462846C5
:104C9000B84701303FF46FAED4E91201002200237F
:104CA000FBF782FED8B90E9B08F10102013B3146A9
:104CB0002846B84701300ED15DE601234A46314609
:104CC0002846B84701303FF456AE08F101080E9B64
:104CD000013B4345F1DC534604F15002E0E64FF05E
:104CE000000804F11A09F2E701234246DFE7012335
:104CF0004A4631462846B84701303FF43CAE08F1F9
:104D00000108E3680F995B1A4345F0DCFDE64FF0BC
:104D1000000804F11909F4E72DE9F0471646994611
:104D20008A680B6907469342B8BF1346336091F80F
:104D300043200C46DDF820800AB10133336023683C
:104D4000990642BF336802333360256815F00605C3
:104D500006D104F1190AE36832689B1AAB4228DCD9
:104D600094F84320131E226818BF012392062DD405
:104D70004946384604F14302C047013020D0236839
:104D8000E56803F00603042B18BF002532684FF0D6
:104D90000006A36808BFAD1A226908BF25EAE575B9
:104DA0009342C4BF9B1AED181A34B5421AD10020A1
:104DB00008E00123524649463846C047013003D136
:104DC0004FF0FF30BDE8F0870135C4E73020E1182F
:104DD00081F843005A1C94F845102244023382F8AB
:104DE0004310C5E70123224649463846C0470130F3
:104DF000E6D00136D9E700002DE9FF470F7E914646
:104E0000782F80460C469A460C9D01F1430207D844
:104E1000622F0AD8002F00F0D980582F00F0A4800C
:104E200004F1420584F842703AE0A7F16303152BC0
:104E3000F6D801A151F823F0914E0008A54E0008C4
:104E4000214E0008214E0008214E0008214E000886
:104E5000A54E0008214E0008214E0008214E0008F2
:104E6000214E0008B34F0008D54E0008954F0008AA
:104E7000214E0008214E0008D54F0008214E0008A1
:104E8000D54E0008214E0008214E00089D4F000815
:104E90002B681A1D1B682A6004F1420584F8423011
:104EA0000123A4E020682968060601F104030AD55D
:104EB0000E682B60002E03DA2D23764284F84330EF
:104EC0000A235E4819E00E6810F0400F2B6018BFEF
:104ED00036B2EFE72B682068191D2960010601D55D
:104EE0001E6802E04606FBD51E886F2F0CBF082304
:104EF0000A235248002184F843106568002DA8BF9A
:104F00002168A560A4BF21F0040121600EB9002D25
:104F10004DD01546B6FBF3F103FB1167C75D05F8ED
:104F2000017D3746BB420E46F4D9082B0BD12368CE
:104F3000DE0708D5236961689942DEBF302305F892
:104F4000013C05F1FF35521B22614B46214640468C
:104F5000CDF800A003AAFFF7DFFE01304CD14FF0DF
:104F6000FF3004B0BDE8F087344881F84570296807
:104F7000236851F8046B29601D0614D5DF0744BF70
:104F800043F0200323601EB9236823F0200323602D
:104F90001023AFE7236843F02003236078232848D9
:104FA00084F84530E3E7590648BFB6B2E6E7154650
:104FB000BBE72B682668181D6169286035061B68E9
:104FC00001D5196002E07006FBD519800023154653
:104FD0002361BAE72B6800211A1D2A601D686268E8
:104FE000284602F07FF808B1401B606063682361C7
:104FF000002384F84330A8E72A46494640462369FF
:10500000D0470130ABD023689B0713D4E068039BE3
:105010009842B8BF1846A4E70123324649464046A5
:10502000D04701309BD00135E36803995B1AAB424E
:10503000F2DCEBE7002504F11906F5E7B88C00086F
:10504000C98C00080EB46FF0004100B59CB01DABD8
:1050500002900690079104910848094953F8042BDF
:105060000591006802A9019302F05CFE0022029BF8
:105070001A701CB05DF804EB03B0704714000020F8
:105080000802FFFF034611F8012B03F8012B002A49
:10509000F9D17047034610B572B10139841813F87D
:1050A000010B11F8012F904201D1A34201D1801AC6
:1050B00010BD0028F3D1FAE71046F9E72DE9F041D9
:1050C0000F46904602F09AFB04460D46B8F1000FD9
:1050D00011D0C7F30A53C3F16B03002B0BDD00247F
:1050E0001B0503F17F5505F5401522462B46FBF7BE
:1050F000F3F904460D4620462946BDE8F08100003C
:105100002DE9F04F9B4600239FB01A939E4B824699
:105110001F680E4638461592FBF71AF84FF0000844
:1051200004464FF000091996199B1A782B2A4CD087
:105130003AD80D2A33D8082A33D8002A3DD0002384
:105140000A93199D2B78302B40F0AA806B7803F0DE
:10515000DF03582B66D10A9B504601931AAB00938C
:105160008A4ACDF808B01BAB19A901F09FFC10F0DA
:105170000706044605D0062E29D1002301351995CE
:105180000A93159B002B40F08A850A9BD3B14246B7
:1051900009F10043104619461FB0BDE8F08F202AE0
:1051A000CDD101331993BFE72D2AC8D101220A922C
:1051B0005A1C19925B78002BC3D1159B1996002BB2
:1051C00040F06B8542464B46E4E70022EFE71A9A2F
:1051D0003AB135211CA802F015FC50461A9901F08D
:1051E000DDFF013E042E06D8DFE806F00A0314179F
:1051F0000A00DDE91C892107C3D549F00049C0E751
:105200001B9ADDE91C8302F2334223F4801343EA44
:105210000259F0E7DFF87891EDE76FF000494FF0C1
:10522000FF38E8E7199B5A1C19925B78302BF9D0AC
:10523000002BA6D001230793199B0A220893002371
:105240009B46CDE9053319980578A5F13003D9B20D
:10525000092927D922463946FFF71CFF002833D0F9
:1052600000202A465C4603460490652A01D0452A60
:1052700014D11CB9079A02439FD00024199E721CB6
:10528000199272782B2A79D02D2A00F0838000277A
:10529000A2F13001092940F28380199600259FE090
:1052A0000023C8E7BBF1080FD5BF0699059902FB9B
:1052B000013302FB013300F10100D4BF06930593D3
:1052C0000BF1010B1990BEE7199B1A1919921A5D7F
:1052D000BBF1000F36D05C460490A2F13003092BDD
:1052E00012D90123C1E7199B01305A1C19925A782F
:1052F000302AF8D0A2F13103082B00F2D5840490B3
:1053000000200446199B0893303A00F1010313D0A2
:10531000049905191944049123460A21AB4213D17B
:105320002318082B04F1010404441BDC0A2306990A
:1053300003FB012306930023199A1846511C199167
:105340005278CAE75846D3E7082B04DC069F4F4340
:1053500006970133E2E75F1C102FDEBF059F4F4326
:105360000597F6E7102CDFBF0A23059903FB0123FD
:105370000593E0E70023049301237BE70027B21C99
:105380001992B27884E700BF288E0008DC8C0008F0
:105390000000F07F0127F2E7199A511C1991527809
:1053A000302AF9D0A2F1310108293FF677AF4FF04A
:1053B0000A0EA2F1300C199A0992199A511C1991EE
:1053C0005278A2F13005092D35D9099D491B0829CC
:1053D00044F61F6502DC6545A8BF654607B16D420E
:1053E000002C4CD1079901437FF4CBAE002B7FF406
:1053F000E4AE692A26D023DC492A23D04E2A7FF442
:10540000DCAE9D4919A801F09FFD00283FF4D5AE00
:10541000199B1B78282B2CD198491CAA19A801F09C
:10542000A7FD052825D11D9BDDF8708043F0FF49BD
:1054300049F4E009A5E60EFB0C2CACF1300CBCE7FE
:105440006E2ADCE78E4919A801F07EFD00283FF4A2
:10545000B4AE199B8B49013B19A8199301F074FD57
:1054600010B9199B013319934FF00008DFF8189217
:1054700087E6864802F056FD8046894681E6049B11
:10548000BBF1000F08BFA346EB1A102C0698264666
:105490000793A8BF1026FAF7A5FF092C8046894676
:1054A00013DD7B4B03EBC60353E91223FBF714F820
:1054B000804605988946FAF795FF02460B46404616
:1054C0004946FAF753FE804689460F2C36DC079B87
:1054D000002B3FF456AE22DD162B09DC6C49424608
:1054E00001EBC3014B46D1E90001FAF7F5FFC3E731
:1054F000079AC4F12503934220DB654DC4F10F04E4
:1055000005EBC4014246D1E900014B46FAF7E4FF3E
:10551000079B1C1B05EBC405D5E90023E5E7079BAA
:1055200016330BDB049B40465D1B594B494603EB8E
:10553000C505D5E90023FBF7F9F89DE7079BA61BF6
:105540001E44002E74DD16F00F030AD05049424667
:1055500001EBC301D1E900014B46FAF7BDFF8046DC
:10556000894636F00F0652D0B6F59A7F27DD4FF008
:10557000000BCDF810B0CDF820B0CDF818B0222334
:105580004FF00008DFF80091CAF80030089B002BAC
:105590003FF4F7AD50461A9901F000FE50460699C7
:1055A00001F0FCFD5046049901F0F8FD50460899C1
:1055B00001F0F4FD5946504601F0F0FDE1E5354BB0
:1055C00040460593002349461F463611012E21DC33
:1055D0000BB1804689462F4BA9F1547903EBC707DD
:1055E0004246D7E900014B46FAF776FF264B0A46BA
:1055F0000B40294980468B42B9D8A1F580118B42D6
:1056000086BF4FF0FF38DFF8949002F15479002301
:1056100005937FE0F20705D5059BD3E90023FAF750
:105620005BFF0123059A0137083276100592CDE71A
:10563000EDD0764216F00F020AD0154B404603EB30
:10564000C2034946D3E90023FBF770F88046894638
:105650003611DCD01F2E23DD4FF0000BCDF810B03B
:10566000CDF820B0CDF818B022234FF000084FF04D
:105670000009CAF8003089E7B58C0008F08C0008F2
:10568000AD8C0008338D00080000F07FE08F00082B
:10569000C08E0008988E00080000A07CFFFFEF7FFE
:1056A00016F0100318BF6A234046059349460023AD
:1056B000B04FF20704D5D7E90023FAF70DFF012315
:1056C000761007F10807F4D10BB180468946059B97
:1056D000C3B1C9F30A52C2F16B03002B494611DD75
:1056E0001F2B40F32781342BD8BF4FF0FF334FF0EF
:1056F0000008CFBF4FF05C79C2F14B0203FA02F20F
:1057000002EA01090022002340464946FBF74CF912
:105710000028A1D1069B5A4600935046234608997B
:1057200001F0A4FD089000283FF421AF049B4FF046
:10573000000B5D1B079BCDF810B0002BB4BF2B46B0
:1057400000230E93079B23EAE3731493089B5046B0
:10575000596801F0E3FC069000283FF410AF089B65
:105760000C301A6903F10C010232920001F0C8FCFE
:105770001CAB01931BAB009342464B465046CDE910
:105780000C8902F0B5F81A9000283FF4F8AE012118
:10579000504601F003FE0346049000283FF4EFAEAC
:1057A0001B9D1C9A002DABBF0E9B149BEE185C1B1F
:1057B000059BA8BF149CA5EB030515446E4B05F192
:1057C000FF35B8BF0E9E9D42C2F1360280F2C48002
:1057D0005B1B1F2B4FF00107A2EB030200F3B1800C
:1057E000002507FA03F30F93B718059BBE42144434
:1057F0001C443346A8BF3B46A342A8BF2346002B08
:10580000C2BFFF1AE41AF61A0E9B002B17DD1A46C8
:105810005046049901F080FE049000283FF4AFAE9A
:1058200001461A9A504601F0CFFD099000283FF436
:10583000A6AE50461A9901F0B1FC099B1A93002FAD
:1058400000F38E80079B002B08DD5046149A0699C2
:1058500001F062FE069000283FF491AE002C08DDB6
:1058600022465046069901F0B1FE069000283FF40A
:1058700086AE002E08DD32465046049901F0A6FEA1
:10588000049000283FF47BAE5046069A1A9901F026
:1058900029FF834600283FF472AE0024C3680499B0
:1058A000C4600B9301F002FFA0426BDA0B9B53EA3A
:1058B000080340F09180C9F31303002B40F08C8063
:1058C00029F000431B0D1B05B3F1D66F40F2848015
:1058D000DBF814301BB9DBF81030012B7CDD5946A6
:1058E0000122504601F072FE0499834601F0DEFE6B
:1058F000002871DD05994B46204A002900F08C8074
:1059000002EA0901B1F1D66F00F38680B1F15C7F44
:105910007FF7AAAE40464946194B0022FAF7DCFD54
:105920000B46034308BF22238046894608BFCAF8B6
:1059300000302FE64FF0FF3202FA03F303EA0808C3
:10594000E0E6C5F17F4505F57F0505F57B45E235C8
:1059500007FA05F50F9747E7012300250F9343E763
:105960003A4650461A9901F031FE1A9000287FF409
:1059700069AF04E6088D000802FCFFFF0000F07F1D
:1059800000005039CDF8249065D10B9AC9F3130368
:105990005AB3994A93422BD1059B414603B34A46D9
:1059A000964B1340B3F1D46F4FF0FF321BD81B0D51
:1059B000C3F16B0302FA03F3994219D1904B099A90
:1059C0009A4202D101313FF4DAAD4FF000088B4B1F
:1059D000099A1A4002F58019059B002B9AD1D9E546
:1059E0004FF0FF33E8E71346E6E753EA080381D0B8
:1059F000E5B1099B1D42EFD00B9B40464946059AF5
:105A0000C3B1FFF75BFB02460B46DDE90C01FAF779
:105A1000ADFB80468946DFE71340A3F580136FEAAC
:105A200013594FF0FF386FEA0959D5E70F9B13EA76
:105A3000080FE0E7FFF742FB02460B46DDE90C01E9
:105A4000FAF792FB0022002380468946FAF7ACFF62
:105A50000028C1D008E65846049901F0A5FF0022AD
:105A60004FF0804306460F46FAF7B2FF002870D089
:105A70000B9B002B42D00026624F624D099B23F006
:105A800000431B0D1B050F930F9A5F4B9A4240F08A
:105A9000C380099B4046A3F15479494601F0AEFE0C
:105AA00002460B4630463946FAF716FD42464B464B
:105AB000FAF75CFB0B465149544A19409142804623
:105AC0005DD90D9A4E4B9A4203D10C9B01333FF4A2
:105AD00056AD4FF0FF38DFF8289150461A9901F083
